{
  "contractName": "TokenKing",
  "abi": [
    {
      "inputs": [],
      "stateMutability": "payable",
      "type": "constructor"
    },
    {
      "anonymous": false,
      "inputs": [
        {
          "components": [
            {
              "internalType": "address",
              "name": "kingAddress",
              "type": "address"
            },
            {
              "internalType": "string",
              "name": "kingAlias",
              "type": "string"
            },
            {
              "internalType": "uint256",
              "name": "claimPrice",
              "type": "uint256"
            },
            {
              "internalType": "uint256",
              "name": "claimTime",
              "type": "uint256"
            }
          ],
          "indexed": false,
          "internalType": "struct TokenKing.King",
          "name": "_newKing",
          "type": "tuple"
        }
      ],
      "name": "ThroneClaimed",
      "type": "event"
    },
    {
      "inputs": [],
      "name": "owner",
      "outputs": [
        {
          "internalType": "address",
          "name": "",
          "type": "address"
        }
      ],
      "stateMutability": "view",
      "type": "function"
    },
    {
      "inputs": [],
      "name": "createGenesis",
      "outputs": [],
      "stateMutability": "payable",
      "type": "function"
    },
    {
      "inputs": [],
      "name": "latestKing",
      "outputs": [
        {
          "components": [
            {
              "internalType": "address",
              "name": "kingAddress",
              "type": "address"
            },
            {
              "internalType": "string",
              "name": "kingAlias",
              "type": "string"
            },
            {
              "internalType": "uint256",
              "name": "claimPrice",
              "type": "uint256"
            },
            {
              "internalType": "uint256",
              "name": "claimTime",
              "type": "uint256"
            }
          ],
          "internalType": "struct TokenKing.King",
          "name": "",
          "type": "tuple"
        }
      ],
      "stateMutability": "view",
      "type": "function"
    },
    {
      "inputs": [],
      "name": "getKings",
      "outputs": [
        {
          "components": [
            {
              "internalType": "address",
              "name": "kingAddress",
              "type": "address"
            },
            {
              "internalType": "string",
              "name": "kingAlias",
              "type": "string"
            },
            {
              "internalType": "uint256",
              "name": "claimPrice",
              "type": "uint256"
            },
            {
              "internalType": "uint256",
              "name": "claimTime",
              "type": "uint256"
            }
          ],
          "internalType": "struct TokenKing.King[]",
          "name": "",
          "type": "tuple[]"
        }
      ],
      "stateMutability": "view",
      "type": "function"
    },
    {
      "inputs": [],
      "name": "currentClaimPrice",
      "outputs": [
        {
          "internalType": "uint256",
          "name": "",
          "type": "uint256"
        }
      ],
      "stateMutability": "view",
      "type": "function"
    },
    {
      "inputs": [
        {
          "internalType": "string",
          "name": "_kingAlias",
          "type": "string"
        }
      ],
      "name": "claimThrone",
      "outputs": [],
      "stateMutability": "payable",
      "type": "function"
    }
  ],
  "bytecode": "0x6080604052336000806101000a81548173ffffffffffffffffffffffffffffffffffffffff021916908373ffffffffffffffffffffffffffffffffffffffff160217905550611707806100536000396000f3fe6080604052600436106100555760003560e01c80632746a2b21461005a57806356007a9c1461008557806361e040e0146100b057806364325ddb146100ba5780638da5cb5b146100e5578063b66a323c14610110575b600080fd5b34801561006657600080fd5b5061006f61012c565b60405161007c9190611185565b60405180910390f35b34801561009157600080fd5b5061009a6102cf565b6040516100a79190611267565b60405180910390f35b6100b8610484565b005b3480156100c657600080fd5b506100cf6106d4565b6040516100dc9190611289565b60405180910390f35b3480156100f157600080fd5b506100fa610771565b604051610107919061116a565b60405180910390f35b61012a60048036038101906101259190610e5b565b610795565b005b6060600060028054905011610176576040517f08c379a000000000000000000000000000000000000000000000000000000000815260040161016d90611207565b60405180910390fd5b6002805480602002602001604051908101604052809291908181526020016000905b828210156102c657838290600052602060002090600402016040518060800160405290816000820160009054906101000a900473ffffffffffffffffffffffffffffffffffffffff1673ffffffffffffffffffffffffffffffffffffffff1673ffffffffffffffffffffffffffffffffffffffff168152602001600182018054610221906114a8565b80601f016020809104026020016040519081016040528092919081815260200182805461024d906114a8565b801561029a5780601f1061026f5761010080835404028352916020019161029a565b820191906000526020600020905b81548152906001019060200180831161027d57829003601f168201915b505050505081526020016002820154815260200160038201548152505081526020019060010190610198565b50505050905090565b6102d7610d12565b60006002805490501161031f576040517f08c379a000000000000000000000000000000000000000000000000000000000815260040161031690611207565b60405180910390fd5b6002600160028054905061033391906113f6565b8154811061036a577f4e487b7100000000000000000000000000000000000000000000000000000000600052603260045260246000fd5b90600052602060002090600402016040518060800160405290816000820160009054906101000a900473ffffffffffffffffffffffffffffffffffffffff1673ffffffffffffffffffffffffffffffffffffffff1673ffffffffffffffffffffffffffffffffffffffff1681526020016001820180546103e9906114a8565b80601f0160208091040260200160405190810160405280929190818152602001828054610415906114a8565b80156104625780601f1061043757610100808354040283529160200191610462565b820191906000526020600020905b81548152906001019060200180831161044557829003601f168201915b5050505050815260200160028201548152602001600382015481525050905090565b3373ffffffffffffffffffffffffffffffffffffffff1660008054906101000a900473ffffffffffffffffffffffffffffffffffffffff1673ffffffffffffffffffffffffffffffffffffffff1614610512576040517f08c379a0000000000000000000000000000000000000000000000000000000008152600401610509906111c7565b60405180910390fd5b60006002805490501461055a576040517f08c379a000000000000000000000000000000000000000000000000000000000815260040161055190611227565b60405180910390fd5b346001819055506002604051806080016040528060008054906101000a900473ffffffffffffffffffffffffffffffffffffffff1673ffffffffffffffffffffffffffffffffffffffff1681526020016040518060400160405280600c81526020017f47656e65736973204b696e6700000000000000000000000000000000000000008152508152602001600154815260200142815250908060018154018082558091505060019003906000526020600020906004020160009091909190915060008201518160000160006101000a81548173ffffffffffffffffffffffffffffffffffffffff021916908373ffffffffffffffffffffffffffffffffffffffff160217905550602082015181600101908051906020019061067d929190610d50565b50604082015181600201556060820151816003015550507f4dccf28234b3367c0c551e59d771c83f53c02c34ffb141b181b3974f16fc01606106bd6102cf565b6040516106ca9190611267565b60405180910390a1565b6000806002805490501161071d576040517f08c379a000000000000000000000000000000000000000000000000000000000815260040161071490611207565b60405180910390fd5b62093a806107296102cf565b606001514261073891906113f6565b1061075357600260015461074c919061139c565b905061076e565b600261075d6102cf565b6040015161076b919061139c565b90505b90565b60008054906101000a900473ffffffffffffffffffffffffffffffffffffffff1681565b6000600280549050116107dd576040517f08c379a00000000000000000000000000000000000000000000000000000000081526004016107d490611207565b60405180910390fd5b6000339050600034905062093a806107f36102cf565b606001514261080291906113f6565b106109fa57600154811461084b576040517f08c379a0000000000000000000000000000000000000000000000000000000008152600401610842906111a7565b60405180910390fd5b600260405180608001604052808473ffffffffffffffffffffffffffffffffffffffff16815260200185815260200183815260200142815250908060018154018082558091505060019003906000526020600020906004020160009091909190915060008201518160000160006101000a81548173ffffffffffffffffffffffffffffffffffffffff021916908373ffffffffffffffffffffffffffffffffffffffff1602179055506020820151816001019080519060200190610910929190610d50565b506040820151816002015560608201518160030155505060008060009054906101000a900473ffffffffffffffffffffffffffffffffffffffff1673ffffffffffffffffffffffffffffffffffffffff168260405161096e90611155565b60006040518083038185875af1925050503d80600081146109ab576040519150601f19603f3d011682016040523d82523d6000602084013e6109b0565b606091505b50509050806109f4576040517f08c379a00000000000000000000000000000000000000000000000000000000081526004016109eb906111e7565b60405180910390fd5b50610ccf565b610a026106d4565b8114610a43576040517f08c379a0000000000000000000000000000000000000000000000000000000008152600401610a3a906111a7565b60405180910390fd5b6000610a4d6102cf565b9050600260405180608001604052808573ffffffffffffffffffffffffffffffffffffffff16815260200186815260200184815260200142815250908060018154018082558091505060019003906000526020600020906004020160009091909190915060008201518160000160006101000a81548173ffffffffffffffffffffffffffffffffffffffff021916908373ffffffffffffffffffffffffffffffffffffffff1602179055506020820151816001019080519060200190610b14929190610d50565b50604082015181600201556060820151816003015550506000603283610b3a919061136b565b905060008184610b4a91906113f6565b905060008060009054906101000a900473ffffffffffffffffffffffffffffffffffffffff1673ffffffffffffffffffffffffffffffffffffffff1683604051610b9390611155565b60006040518083038185875af1925050503d8060008114610bd0576040519150601f19603f3d011682016040523d82523d6000602084013e610bd5565b606091505b5050905080610c19576040517f08c379a0000000000000000000000000000000000000000000000000000000008152600401610c10906111e7565b60405180910390fd5b6000846000015173ffffffffffffffffffffffffffffffffffffffff1683604051610c4390611155565b60006040518083038185875af1925050503d8060008114610c80576040519150601f19603f3d011682016040523d82523d6000602084013e610c85565b606091505b5050905080610cc9576040517f08c379a0000000000000000000000000000000000000000000000000000000008152600401610cc090611247565b60405180910390fd5b50505050505b7f4dccf28234b3367c0c551e59d771c83f53c02c34ffb141b181b3974f16fc0160610cf86102cf565b604051610d059190611267565b60405180910390a1505050565b6040518060800160405280600073ffffffffffffffffffffffffffffffffffffffff1681526020016060815260200160008152602001600081525090565b828054610d5c906114a8565b90600052602060002090601f016020900481019282610d7e5760008555610dc5565b82601f10610d9757805160ff1916838001178555610dc5565b82800160010185558215610dc5579182015b82811115610dc4578251825591602001919060010190610da9565b5b509050610dd29190610dd6565b5090565b5b80821115610def576000816000905550600101610dd7565b5090565b6000610e06610e01846112c9565b6112a4565b905082815260208101848484011115610e1e57600080fd5b610e29848285611466565b509392505050565b600082601f830112610e4257600080fd5b8135610e52848260208601610df3565b91505092915050565b600060208284031215610e6d57600080fd5b600082013567ffffffffffffffff811115610e8757600080fd5b610e9384828501610e31565b91505092915050565b6000610ea88383611071565b905092915050565b610eb98161142a565b82525050565b610ec88161142a565b82525050565b6000610ed98261130a565b610ee3818561132d565b935083602082028501610ef5856112fa565b8060005b85811015610f315784840389528151610f128582610e9c565b9450610f1d83611320565b925060208a01995050600181019050610ef9565b50829750879550505050505092915050565b6000610f4e82611315565b610f588185611349565b9350610f68818560208601611475565b610f71816115c7565b840191505092915050565b6000610f89601e8361135a565b9150610f94826115d8565b602082019050919050565b6000610fac60128361135a565b9150610fb782611601565b602082019050919050565b6000610fcf60188361135a565b9150610fda8261162a565b602082019050919050565b6000610ff260208361135a565b9150610ffd82611653565b602082019050919050565b600061101560008361133e565b91506110208261167c565b600082019050919050565b6000611038601c8361135a565b91506110438261167f565b602082019050919050565b600061105b60208361135a565b9150611066826116a8565b602082019050919050565b60006080830160008301516110896000860182610eb0565b50602083015184820360208601526110a18282610f43565b91505060408301516110b66040860182611137565b5060608301516110c96060860182611137565b508091505092915050565b60006080830160008301516110ec6000860182610eb0565b50602083015184820360208601526111048282610f43565b91505060408301516111196040860182611137565b50606083015161112c6060860182611137565b508091505092915050565b6111408161145c565b82525050565b61114f8161145c565b82525050565b600061116082611008565b9150819050919050565b600060208201905061117f6000830184610ebf565b92915050565b6000602082019050818103600083015261119f8184610ece565b905092915050565b600060208201905081810360008301526111c081610f7c565b9050919050565b600060208201905081810360008301526111e081610f9f565b9050919050565b6000602082019050818103600083015261120081610fc2565b9050919050565b6000602082019050818103600083015261122081610fe5565b9050919050565b600060208201905081810360008301526112408161102b565b9050919050565b600060208201905081810360008301526112608161104e565b9050919050565b6000602082019050818103600083015261128181846110d4565b905092915050565b600060208201905061129e6000830184611146565b92915050565b60006112ae6112bf565b90506112ba82826114da565b919050565b6000604051905090565b600067ffffffffffffffff8211156112e4576112e3611598565b5b6112ed826115c7565b9050602081019050919050565b6000819050602082019050919050565b600081519050919050565b600081519050919050565b6000602082019050919050565b600082825260208201905092915050565b600081905092915050565b600082825260208201905092915050565b600082825260208201905092915050565b60006113768261145c565b91506113818361145c565b9250826113915761139061153a565b5b828204905092915050565b60006113a78261145c565b91506113b28361145c565b9250817fffffffffffffffffffffffffffffffffffffffffffffffffffffffffffffffff04831182151516156113eb576113ea61150b565b5b828202905092915050565b60006114018261145c565b915061140c8361145c565b92508282101561141f5761141e61150b565b5b828203905092915050565b60006114358261143c565b9050919050565b600073ffffffffffffffffffffffffffffffffffffffff82169050919050565b6000819050919050565b82818337600083830152505050565b60005b83811015611493578082015181840152602081019050611478565b838111156114a2576000848401525b50505050565b600060028204905060018216806114c057607f821691505b602082108114156114d4576114d3611569565b5b50919050565b6114e3826115c7565b810181811067ffffffffffffffff8211171561150257611501611598565b5b80604052505050565b7f4e487b7100000000000000000000000000000000000000000000000000000000600052601160045260246000fd5b7f4e487b7100000000000000000000000000000000000000000000000000000000600052601260045260246000fd5b7f4e487b7100000000000000000000000000000000000000000000000000000000600052602260045260246000fd5b7f4e487b7100000000000000000000000000000000000000000000000000000000600052604160045260246000fd5b6000601f19601f8301169050919050565b7f57726f6e6720616d6f756e74206f662045746865722070726f76696465640000600082015250565b7f4f6e6c79206f776e657220616c6c6f7765640000000000000000000000000000600082015250565b7f5472616e7366657220746f206f776e6572206661696c65640000000000000000600082015250565b7f47656e65736973204b696e67206e6565647320746f2062652063726561746564600082015250565b50565b7f47656e65736973204b696e6720616c7265616479206372656174656400000000600082015250565b7f5472616e7366657220746f2070726576696f7573206b696e67206661696c656460008201525056fea2646970667358221220456a89d5888feb75c55800d92d80b87e4ea75fe400ec98cc9a7e5c8afeb4fd3e64736f6c63430008040033",
  "immutableReferences": {},
  "source": "// SPDX-License-Identifier: GPL-3.0\npragma solidity ^0.8.4;\n\ncontract TokenKing {\n    \n    address public owner;\n    uint256 baseClaimPrice;\n\n    struct King {\n        address kingAddress;\n        string kingAlias;\n        uint256 claimPrice;\n        uint claimTime;\n    }\n    \n    King[] kings;\n    \n    event ThroneClaimed(King _newKing);\n    \n    modifier onlyOwner() {\n        require(owner == msg.sender, \"Only owner allowed\");\n        _;\n    }\n    \n    modifier genesisCreated() {\n        require(kings.length > 0, \"Genesis King needs to be created\");\n        _;\n    }\n    \n    constructor() payable {\n        owner = msg.sender;\n    }\n    \n    function createGenesis() onlyOwner public payable {\n        require(kings.length == 0, \"Genesis King already created\");\n        \n        baseClaimPrice = msg.value;\n        \n        kings.push(King(owner, \"Genesis King\", baseClaimPrice, block.timestamp));\n        \n        emit ThroneClaimed(latestKing());\n    }\n    \n    function latestKing() genesisCreated public view returns (King memory) {\n        return kings[kings.length - 1];\n    }\n    \n    function getKings() genesisCreated public view returns (King[] memory) {\n        return kings;\n    }\n    \n    function currentClaimPrice() genesisCreated public view returns (uint256) {\n        if (block.timestamp - latestKing().claimTime >= 604800) {\n            return baseClaimPrice * 2;\n        } else {\n            return latestKing().claimPrice * 2;\n        }\n    }\n    \n    function claimThrone(string memory _kingAlias) genesisCreated public payable {\n        address _kingAddress = msg.sender;\n        uint256 _claimPrice = msg.value;\n        \n        if (block.timestamp - latestKing().claimTime >= 604800) {\n            require(_claimPrice == baseClaimPrice, \"Wrong amount of Ether provided\");\n            \n            kings.push(King(_kingAddress, _kingAlias, _claimPrice, block.timestamp));\n            \n            (bool claimSuccess, ) = owner.call{ value: _claimPrice }(\"\");\n            require(claimSuccess, \"Transfer to owner failed\");\n        } else {\n            require(_claimPrice == currentClaimPrice(), \"Wrong amount of Ether provided\");\n            \n            King memory _latestKing = latestKing();\n        \n            kings.push(King(_kingAddress, _kingAlias, _claimPrice, block.timestamp));\n            \n            // 2% fee\n            uint256 _feePrice = _claimPrice / 50;\n            uint256 _kingPrice = _claimPrice - _feePrice;\n            \n            (bool feeSuccess, ) = owner.call{ value: _feePrice }(\"\");\n            require(feeSuccess, \"Transfer to owner failed\");\n            \n            (bool kingSuccess, ) = _latestKing.kingAddress.call{ value: _kingPrice }(\"\");\n            require(kingSuccess, \"Transfer to previous king failed\");\n        }\n        \n        emit ThroneClaimed(latestKing());\n    }\n    \n}",
  "sourcePath": "/Users/troykessler/Desktop/token-king/contracts/TokenKing.sol",
  "compiler": {
    "name": "solc",
    "version": "0.8.4+commit.c7e474f2.Emscripten.clang"
  },
  "schemaVersion": "3.4.2",
  "updatedAt": "2021-08-27T12:45:24.335Z",
  "devdoc": {
    "kind": "dev",
    "methods": {},
    "version": 1
  },
  "userdoc": {
    "kind": "user",
    "methods": {},
    "version": 1
  }
}